{
  "contractName": "InsuranceOracle",
  "abi": [
    {
      "anonymous": false,
      "inputs": [
        {
          "indexed": false,
          "internalType": "bool",
          "name": "isActive",
          "type": "bool"
        }
      ],
      "name": "PolicyInitialized",
      "type": "event"
    },
    {
      "inputs": [],
      "name": "owner",
      "outputs": [
        {
          "internalType": "address",
          "name": "",
          "type": "address"
        }
      ],
      "stateMutability": "view",
      "type": "function",
      "constant": true
    },
    {
      "inputs": [
        {
          "internalType": "bool",
          "name": "value",
          "type": "bool"
        }
      ],
      "name": "declarePolicyActive",
      "outputs": [],
      "stateMutability": "nonpayable",
      "type": "function"
    },
    {
      "inputs": [
        {
          "internalType": "bool",
          "name": "value",
          "type": "bool"
        }
      ],
      "name": "setPolicyIsClaimable",
      "outputs": [],
      "stateMutability": "nonpayable",
      "type": "function"
    },
    {
      "inputs": [],
      "name": "getPolicyIsClaimable",
      "outputs": [
        {
          "internalType": "bool",
          "name": "",
          "type": "bool"
        }
      ],
      "stateMutability": "view",
      "type": "function",
      "constant": true
    },
    {
      "inputs": [],
      "name": "getAddress",
      "outputs": [
        {
          "internalType": "address",
          "name": "",
          "type": "address"
        }
      ],
      "stateMutability": "view",
      "type": "function",
      "constant": true
    },
    {
      "inputs": [],
      "name": "testConnection",
      "outputs": [
        {
          "internalType": "bool",
          "name": "",
          "type": "bool"
        }
      ],
      "stateMutability": "pure",
      "type": "function",
      "constant": true
    }
  ],
  "bytecode": "0x608060405260008060146101000a81548160ff02191690831515021790555034801561002a57600080fd5b50336000806101000a81548173ffffffffffffffffffffffffffffffffffffffff021916908373ffffffffffffffffffffffffffffffffffffffff1602179055506102a18061007a6000396000f3fe608060405234801561001057600080fd5b50600436106100625760003560e01c80632dd308d9146100675780633412a15c1461009757806338cc4831146100b75780638da5cb5b146100eb5780639d8b3e241461011f578063f714c06c1461014f575b600080fd5b6100956004803603602081101561007d57600080fd5b8101908080351515906020019092919050505061016f565b005b61009f6101e4565b60405180821515815260200191505060405180910390f35b6100bf6101ed565b604051808273ffffffffffffffffffffffffffffffffffffffff16815260200191505060405180910390f35b6100f36101f5565b604051808273ffffffffffffffffffffffffffffffffffffffff16815260200191505060405180910390f35b61014d6004803603602081101561013557600080fd5b81019080803515159060200190929190505050610219565b005b610157610255565b60405180821515815260200191505060405180910390f35b60008054906101000a900473ffffffffffffffffffffffffffffffffffffffff1673ffffffffffffffffffffffffffffffffffffffff163373ffffffffffffffffffffffffffffffffffffffff16146101c757600080fd5b80600060146101000a81548160ff02191690831515021790555050565b60006001905090565b600030905090565b60008054906101000a900473ffffffffffffffffffffffffffffffffffffffff1681565b7f7f80f6442c3355ae66fd57fc95715c623b267bff31b0f17d8de16c010e0510e98160405180821515815260200191505060405180910390a150565b60008060149054906101000a900460ff1690509056fea2646970667358221220b44addf0b25398624be78c373df64f1ba0a58b0e7521e0ee7e14fc837a74492664736f6c63430007040033",
  "immutableReferences": {},
  "source": "pragma solidity ^0.7.4;\r\n\r\nimport \"./Ownable.sol\";\r\n\r\ncontract InsuranceOracle is Ownable {\r\n\r\n    bool policyIsClaimable = false;\r\n\r\n    event PolicyInitialized(\r\n        bool isActive\r\n    );\r\n\r\n    function declarePolicyActive(bool value) external {\r\n        emit PolicyInitialized(value);\r\n    }\r\n\r\n    function setPolicyIsClaimable(bool value) onlyOwner public {\r\n        policyIsClaimable = value;\r\n    }\r\n\r\n    function getPolicyIsClaimable() public view returns (bool) {\r\n        return policyIsClaimable;\r\n    }\r\n\r\n\r\n    function getAddress() public view returns (address) {\r\n        return address(this);\r\n    }\r\n\r\n    function testConnection() public pure returns (bool) {\r\n        return true; \r\n    }\r\n\r\n}",
  "sourcePath": "C:/Users/Wrath/blockchainProject/insurance-oracle/contracts/InsuranceOracle.sol",
  "compiler": {
    "name": "solc",
    "version": "0.7.4+commit.3f05b770.Emscripten.clang"
  },
  "schemaVersion": "3.3.4",
  "updatedAt": "2021-03-14T21:38:01.834Z",
  "networkType": "ethereum",
  "devdoc": {
    "kind": "dev",
    "methods": {},
    "version": 1
  },
  "userdoc": {
    "kind": "user",
    "methods": {},
    "version": 1
  }
}