{
  "contractName": "Insurance",
  "abi": [
    {
      "inputs": [
        {
          "internalType": "uint256",
          "name": "_policyAmount",
          "type": "uint256"
        },
        {
          "internalType": "uint256",
          "name": "_policyPrice",
          "type": "uint256"
        },
        {
          "internalType": "uint256",
          "name": "_policyDuration",
          "type": "uint256"
        }
      ],
      "stateMutability": "nonpayable",
      "type": "constructor"
    },
    {
      "anonymous": false,
      "inputs": [
        {
          "indexed": false,
          "internalType": "address",
          "name": "policyHolder",
          "type": "address"
        },
        {
          "indexed": false,
          "internalType": "uint256",
          "name": "policyAmount",
          "type": "uint256"
        },
        {
          "indexed": false,
          "internalType": "uint256",
          "name": "payment",
          "type": "uint256"
        }
      ],
      "name": "PolicyClaimed",
      "type": "event"
    },
    {
      "anonymous": false,
      "inputs": [
        {
          "indexed": false,
          "internalType": "address",
          "name": "insuranceProvider",
          "type": "address"
        },
        {
          "indexed": false,
          "internalType": "uint256",
          "name": "policyAmount",
          "type": "uint256"
        },
        {
          "indexed": false,
          "internalType": "uint256",
          "name": "payment",
          "type": "uint256"
        }
      ],
      "name": "PolicyEnded",
      "type": "event"
    },
    {
      "inputs": [],
      "name": "owner",
      "outputs": [
        {
          "internalType": "address",
          "name": "",
          "type": "address"
        }
      ],
      "stateMutability": "view",
      "type": "function",
      "constant": true
    },
    {
      "inputs": [],
      "name": "depositPolicyAmount",
      "outputs": [],
      "stateMutability": "payable",
      "type": "function",
      "payable": true
    },
    {
      "inputs": [],
      "name": "depositPayment",
      "outputs": [],
      "stateMutability": "payable",
      "type": "function",
      "payable": true
    },
    {
      "inputs": [],
      "name": "endPolicy",
      "outputs": [],
      "stateMutability": "nonpayable",
      "type": "function"
    },
    {
      "inputs": [],
      "name": "claimPolicy",
      "outputs": [],
      "stateMutability": "nonpayable",
      "type": "function"
    },
    {
      "inputs": [
        {
          "internalType": "address",
          "name": "_onChainOracle",
          "type": "address"
        }
      ],
      "name": "setOracleAddress",
      "outputs": [
        {
          "internalType": "bool",
          "name": "",
          "type": "bool"
        }
      ],
      "stateMutability": "nonpayable",
      "type": "function"
    },
    {
      "inputs": [],
      "name": "getOracleAddress",
      "outputs": [
        {
          "internalType": "address",
          "name": "",
          "type": "address"
        }
      ],
      "stateMutability": "view",
      "type": "function",
      "constant": true
    },
    {
      "inputs": [],
      "name": "testOracleConnection",
      "outputs": [
        {
          "internalType": "bool",
          "name": "",
          "type": "bool"
        }
      ],
      "stateMutability": "view",
      "type": "function",
      "constant": true
    },
    {
      "inputs": [],
      "name": "balanceOfContract",
      "outputs": [
        {
          "internalType": "uint256",
          "name": "",
          "type": "uint256"
        }
      ],
      "stateMutability": "view",
      "type": "function",
      "constant": true
    },
    {
      "inputs": [],
      "name": "getInsuranceProvider",
      "outputs": [
        {
          "internalType": "address",
          "name": "",
          "type": "address"
        }
      ],
      "stateMutability": "view",
      "type": "function",
      "constant": true
    },
    {
      "inputs": [],
      "name": "getPolicyHolder",
      "outputs": [
        {
          "internalType": "address",
          "name": "",
          "type": "address"
        }
      ],
      "stateMutability": "view",
      "type": "function",
      "constant": true
    },
    {
      "inputs": [],
      "name": "getPolicyAmount",
      "outputs": [
        {
          "internalType": "uint256",
          "name": "",
          "type": "uint256"
        }
      ],
      "stateMutability": "view",
      "type": "function",
      "constant": true
    },
    {
      "inputs": [],
      "name": "getPolicyPrice",
      "outputs": [
        {
          "internalType": "uint256",
          "name": "",
          "type": "uint256"
        }
      ],
      "stateMutability": "view",
      "type": "function",
      "constant": true
    },
    {
      "inputs": [],
      "name": "getPolicyEndTime",
      "outputs": [
        {
          "internalType": "uint256",
          "name": "",
          "type": "uint256"
        }
      ],
      "stateMutability": "view",
      "type": "function",
      "constant": true
    }
  ],
  "bytecode": "0x60806040526000600660006101000a81548160ff0219169083151502179055506000600660016101000a81548160ff0219169083151502179055506000600660026101000a81548160ff021916908315150217905550600860009054906101000a900473ffffffffffffffffffffffffffffffffffffffff16600960006101000a81548173ffffffffffffffffffffffffffffffffffffffff021916908373ffffffffffffffffffffffffffffffffffffffff1602179055503480156100c457600080fd5b506040516112b63803806112b6833981810160405260608110156100e757600080fd5b81019080805190602001909291908051906020019092919080519060200190929190505050336000806101000a81548173ffffffffffffffffffffffffffffffffffffffff021916908373ffffffffffffffffffffffffffffffffffffffff160217905550826001819055508160028190555080420160038190555033600660036101000a81548173ffffffffffffffffffffffffffffffffffffffff021916908373ffffffffffffffffffffffffffffffffffffffff160217905550505050611100806101b66000396000f3fe6080604052600436106100dd5760003560e01c80634c69c00f1161007f578063a559dd2c11610059578063a559dd2c146102db578063aa5e2153146102f2578063b18b78dd146102fc578063e6c7c4561461033d576100dd565b80634c69c00f146101f25780638da5cb5b14610259578063a3f82eb81461029a576100dd565b80632ce3707e116100bb5780632ce3707e1461014f57806338bdff951461017c57806342994093146101a757806346c8913c146101b1576100dd565b806314a20bea146100e25780631c6b1f07146100f95780631d149c3714610124575b600080fd5b3480156100ee57600080fd5b506100f7610368565b005b34801561010557600080fd5b5061010e610687565b6040518082815260200191505060405180910390f35b34801561013057600080fd5b50610139610691565b6040518082815260200191505060405180910390f35b34801561015b57600080fd5b5061016461069b565b60405180821515815260200191505060405180910390f35b34801561018857600080fd5b50610191610745565b6040518082815260200191505060405180910390f35b6101af61074f565b005b3480156101bd57600080fd5b506101c66109b3565b604051808273ffffffffffffffffffffffffffffffffffffffff16815260200191505060405180910390f35b3480156101fe57600080fd5b506102416004803603602081101561021557600080fd5b81019080803573ffffffffffffffffffffffffffffffffffffffff1690602001909291905050506109dd565b60405180821515815260200191505060405180910390f35b34801561026557600080fd5b5061026e610b86565b604051808273ffffffffffffffffffffffffffffffffffffffff16815260200191505060405180910390f35b3480156102a657600080fd5b506102af610baa565b604051808273ffffffffffffffffffffffffffffffffffffffff16815260200191505060405180910390f35b3480156102e757600080fd5b506102f0610bd4565b005b6102fa610e67565b005b34801561030857600080fd5b50610311611052565b604051808273ffffffffffffffffffffffffffffffffffffffff16815260200191505060405180910390f35b34801561034957600080fd5b5061035261107c565b6040518082815260200191505060405180910390f35b6003544211156103e0576040517f08c379a000000000000000000000000000000000000000000000000000000000815260040180806020018281038252600f8152602001807f506572696f6420657870697265642e000000000000000000000000000000000081525060200191505060405180910390fd5b600660009054906101000a900460ff1615610463576040517f08c379a00000000000000000000000000000000000000000000000000000000081526004018080602001828103825260198152602001807f506f6c6963792068617320616c726561647920656e6465642e0000000000000081525060200191505060405180910390fd5b600960009054906101000a900473ffffffffffffffffffffffffffffffffffffffff1673ffffffffffffffffffffffffffffffffffffffff1663f714c06c6040518163ffffffff1660e01b815260040160206040518083038186803b1580156104cb57600080fd5b505afa1580156104df573d6000803e3d6000fd5b505050506040513d60208110156104f557600080fd5b8101908080519060200190929190505050610578576040517f08c379a00000000000000000000000000000000000000000000000000000000081526004018080602001828103825260168152602001807f4e6f742079657420612076616c696420636c61696d2e0000000000000000000081525060200191505060405180910390fd5b6001600660006101000a81548160ff0219169083151502179055507fed750b94c78c97aa2b3696061ef8e68e83866262d95283e35e178b024b4837cc600760009054906101000a900473ffffffffffffffffffffffffffffffffffffffff16600154600254604051808473ffffffffffffffffffffffffffffffffffffffff168152602001838152602001828152602001935050505060405180910390a1600760009054906101000a900473ffffffffffffffffffffffffffffffffffffffff1673ffffffffffffffffffffffffffffffffffffffff166108fc600554600454019081150290604051600060405180830381858888f19350505050158015610684573d6000803e3d6000fd5b50565b6000600354905090565b6000600254905090565b6000600960009054906101000a900473ffffffffffffffffffffffffffffffffffffffff1673ffffffffffffffffffffffffffffffffffffffff16633412a15c6040518163ffffffff1660e01b815260040160206040518083038186803b15801561070557600080fd5b505afa158015610719573d6000803e3d6000fd5b505050506040513d602081101561072f57600080fd5b8101908080519060200190929190505050905090565b6000600154905090565b600660039054906101000a900473ffffffffffffffffffffffffffffffffffffffff1673ffffffffffffffffffffffffffffffffffffffff163373ffffffffffffffffffffffffffffffffffffffff1614610812576040517f08c379a00000000000000000000000000000000000000000000000000000000081526004018080602001828103825260198152602001807f596f7520617265206e6f74207468652070726f7669646572210000000000000081525060200191505060405180910390fd5b6001543414610889576040517f08c379a00000000000000000000000000000000000000000000000000000000081526004018080602001828103825260168152602001807f496e76616c696420706f6c69637920616d6f756e742e0000000000000000000081525060200191505060405180910390fd5b600660009054906101000a900460ff161561090c576040517f08c379a00000000000000000000000000000000000000000000000000000000081526004018080602001828103825260108152602001807f506f6c6963792068617320656e6465640000000000000000000000000000000081525060200191505060405180910390fd5b600660029054906101000a900460ff161561098f576040517f08c379a00000000000000000000000000000000000000000000000000000000081526004018080602001828103825260208152602001807f506f6c69637920616d6f756e7420616c7265616479206465706f73697465642181525060200191505060405180910390fd5b6001600660026101000a81548160ff02191690831515021790555034600481905550565b6000600660039054906101000a900473ffffffffffffffffffffffffffffffffffffffff16905090565b60008060009054906101000a900473ffffffffffffffffffffffffffffffffffffffff1673ffffffffffffffffffffffffffffffffffffffff163373ffffffffffffffffffffffffffffffffffffffff1614610a3857600080fd5b81600860006101000a81548173ffffffffffffffffffffffffffffffffffffffff021916908373ffffffffffffffffffffffffffffffffffffffff160217905550600860009054906101000a900473ffffffffffffffffffffffffffffffffffffffff16600960006101000a81548173ffffffffffffffffffffffffffffffffffffffff021916908373ffffffffffffffffffffffffffffffffffffffff160217905550600960009054906101000a900473ffffffffffffffffffffffffffffffffffffffff1673ffffffffffffffffffffffffffffffffffffffff16633412a15c6040518163ffffffff1660e01b815260040160206040518083038186803b158015610b4457600080fd5b505afa158015610b58573d6000803e3d6000fd5b505050506040513d6020811015610b6e57600080fd5b81019080805190602001909291905050509050919050565b60008054906101000a900473ffffffffffffffffffffffffffffffffffffffff1681565b6000600760009054906101000a900473ffffffffffffffffffffffffffffffffffffffff16905090565b600660039054906101000a900473ffffffffffffffffffffffffffffffffffffffff1673ffffffffffffffffffffffffffffffffffffffff163373ffffffffffffffffffffffffffffffffffffffff1614610c7a576040517f08c379a00000000000000000000000000000000000000000000000000000000081526004018080602001828103825260248152602001806110856024913960400191505060405180910390fd5b600354421015610cf2576040517f08c379a00000000000000000000000000000000000000000000000000000000081526004018080602001828103825260178152602001807f506572696f64206e6f742079657420657870697265642e00000000000000000081525060200191505060405180910390fd5b600660009054906101000a900460ff1615610d58576040517f08c379a00000000000000000000000000000000000000000000000000000000081526004018080602001828103825260228152602001806110a96022913960400191505060405180910390fd5b6001600660006101000a81548160ff0219169083151502179055507f0c70b1b05075f8da631c9716f10e3a21685ba4e7ab311477f8cc2bec6e44d57c600660039054906101000a900473ffffffffffffffffffffffffffffffffffffffff16600154600254604051808473ffffffffffffffffffffffffffffffffffffffff168152602001838152602001828152602001935050505060405180910390a1600660039054906101000a900473ffffffffffffffffffffffffffffffffffffffff1673ffffffffffffffffffffffffffffffffffffffff166108fc600554600454019081150290604051600060405180830381858888f19350505050158015610e64573d6000803e3d6000fd5b50565b6002543414610ede576040517f08c379a000000000000000000000000000000000000000000000000000000000815260040180806020018281038252601f8152602001807f4e6f742074686520636f7272656374207061796d656e7420616d6f756e74210081525060200191505060405180910390fd5b600660019054906101000a900460ff1615610f61576040517f08c379a00000000000000000000000000000000000000000000000000000000081526004018080602001828103825260198152602001807f506f6c69637920697320616c7265616479206163746976652e0000000000000081525060200191505060405180910390fd5b600660009054906101000a900460ff1615610fe4576040517f08c379a00000000000000000000000000000000000000000000000000000000081526004018080602001828103825260108152602001807f506f6c6963792068617320656e6465640000000000000000000000000000000081525060200191505060405180910390fd5b33600760006101000a81548173ffffffffffffffffffffffffffffffffffffffff021916908373ffffffffffffffffffffffffffffffffffffffff1602179055506001600660016101000a81548160ff02191690831515021790555034600460008282540192505081905550565b6000600860009054906101000a900473ffffffffffffffffffffffffffffffffffffffff16905090565b60004790509056fe4f6e6c79207468652070726f766964657220697320616c6c6f77656420746f20656e642e656e64506f6c6963792068617320616c7265616479206265656e2063616c6c65642ea2646970667358221220455f39fccf4211a4c70cfb647eada317ca1ee75ac1bd783313fcb6bdebe2866d64736f6c63430007040033",
  "immutableReferences": {},
  "source": "pragma solidity ^0.7.4;\r\n\r\nimport \"./OracleInterface.sol\";\r\nimport \"./Ownable.sol\";\r\n\r\n\r\ncontract Insurance is Ownable {\r\n    \r\n    uint policyAmount;\r\n    uint policyPrice;\r\n    uint policyEndTime;\r\n\r\n    uint policyBalance;\r\n    uint paymentBalance;\r\n\r\n    bool ended = false;\r\n    bool active = false;\r\n    bool policyIsSet = false;\r\n\r\n    address payable insuranceProvider;\r\n    address payable policyHolder;\r\n    address internal onChainOracle;\r\n\r\n    event PolicyEnded(address insuranceProvider, uint policyAmount, uint payment);\r\n    event PolicyClaimed(address policyHolder, uint policyAmount, uint payment);\r\n\r\n    OracleInterface internal insuranceOracle = OracleInterface(onChainOracle);\r\n\r\n    constructor (\r\n        uint _policyAmount,      // wei\r\n        uint _policyPrice,       // wei\r\n        uint _policyDuration     // UNIX time\r\n    ) {\r\n        policyAmount = _policyAmount;\r\n        policyPrice = _policyPrice;\r\n        policyEndTime = block.timestamp + _policyDuration;\r\n\r\n        insuranceProvider = msg.sender;\r\n    }\r\n\r\n    function depositPolicyAmount() external payable {\r\n        require(msg.sender == insuranceProvider, \"You are not the provider!\");\r\n        require(msg.value == policyAmount, \"Invalid policy amount.\");\r\n        require(!ended, \"Policy has ended\");\r\n        require (!policyIsSet, \"Policy amount already deposited!\");\r\n        policyIsSet = true;\r\n        policyBalance = msg.value; \r\n    }\r\n\r\n    function depositPayment() external payable {\r\n        require(msg.value == policyPrice, \"Not the correct payment amount!\");\r\n        require(!active, \"Policy is already active.\");\r\n        require(!ended, \"Policy has ended\");\r\n        policyHolder = msg.sender;\r\n        active = true;\r\n        policyBalance += msg.value;\r\n    }\r\n\r\n\r\n    function endPolicy() public {\r\n        require( msg.sender ==  insuranceProvider, \"Only the provider is allowed to end.\");\r\n        require(block.timestamp >= policyEndTime, \"Period not yet expired.\");\r\n        require(!ended, \"endPolicy has already been called.\");\r\n\r\n        ended = true;\r\n\r\n        emit PolicyEnded(insuranceProvider, policyAmount, policyPrice);\r\n\r\n        insuranceProvider.transfer(policyBalance + paymentBalance);\r\n    }\r\n\r\n    function claimPolicy() public {\r\n        require(block.timestamp <= policyEndTime, \"Period expired.\");\r\n        require(!ended, \"Policy has already ended.\");\r\n        require(insuranceOracle.getPolicyIsClaimable(), \"Not yet a valid claim.\");\r\n\r\n        ended = true;\r\n\r\n        emit PolicyClaimed(policyHolder, policyAmount, policyPrice);\r\n\r\n        policyHolder.transfer(policyBalance + paymentBalance);\r\n    }\r\n\r\n    function setOracleAddress(address _onChainOracle) external onlyOwner returns (bool) {\r\n        onChainOracle = _onChainOracle;\r\n        insuranceOracle = OracleInterface(onChainOracle); \r\n        return insuranceOracle.testConnection();\r\n    }\r\n\r\n    function getOracleAddress() external view returns (address) {\r\n        return onChainOracle;\r\n    }\r\n\r\n    function testOracleConnection() public view returns (bool) {\r\n        return insuranceOracle.testConnection(); \r\n    }\r\n\r\n    function balanceOfContract() external view returns (uint) {\r\n        return address(this).balance;\r\n    }\r\n\r\n    function getInsuranceProvider() external view returns (address) {\r\n        return insuranceProvider;\r\n    }\r\n    \r\n    function getPolicyHolder() external view returns (address) {\r\n        return policyHolder;\r\n    }\r\n\r\n    function getPolicyAmount() external view returns (uint){\r\n        return policyAmount;\r\n    }\r\n\r\n    function getPolicyPrice() external view returns (uint){\r\n        return policyPrice;\r\n    }\r\n\r\n    function getPolicyEndTime() external view returns (uint){\r\n        return policyEndTime;\r\n    }\r\n\r\n}",
  "sourcePath": "C:/Users/Wrath/blockchainProject/insurance-contract/contracts/Insurance.sol",
  "compiler": {
    "name": "solc",
    "version": "0.7.4+commit.3f05b770.Emscripten.clang"
  },
  "schemaVersion": "3.3.4",
  "updatedAt": "2021-03-14T21:41:57.767Z",
  "networkType": "ethereum",
  "devdoc": {
    "kind": "dev",
    "methods": {},
    "version": 1
  },
  "userdoc": {
    "kind": "user",
    "methods": {},
    "version": 1
  }
}